:04100000B3EF11F049
:08100800046ED8CF05F0E0CF23
:1010100006F00001E9CF0CF0EACF07F0E1CF08F0CD
:10102000E2CF09F0D9CF0AF0DACF0BF0F3CF12F00C
:10103000F4CF13F0FACF14F000C00EF001C00FF09F
:1010400002C010F003C011F0A0AA2AEF08F0A1BA64
:10105000FCEF0FF00EC000F00FC001F010C002F066
:1010600011C003F00CC0E9FF07C0EAFF078E08C0FB
:10107000E1FF09C0E2FF0AC0D9FF0BC0DAFF12C0CE
:10108000F3FF13C0F4FF14C0FAFF045006C0E0FFE2
:1010900005C0D8FF1000F76AA60FF66E100EF722F3
:1010A0000900F5501200000302FFFFFFFFFFFFFFE2
:1010B000FFFFFFFFFFFFF76AC60FF66E100EF72265
:1010C0000900F550120000FF02FFFFFFFFFFFFFFC6
:1010D000FFFFFFFFFFFFF76AE60FF66E100EF72225
:1010E0000900F550120040000B0040000000000015
:1010F00000000000000000000000000000000000F0
:1011000000000000000007AE03D0F2CF0DF0F29E09
:10111000F76A280FF66E110EF7220900F55007AE98
:1011200002D00DBEF28E1200400000004000000010
:1011300000000000000000000000000000000000AF
:101140000000000000000000F76A580FF66E110E54
:10115000F7220900F5501200090243000201008045
:1011600032090400000102020100052400100104FC
:10117000240202052406000105240100010705815F
:10118000030B00FA09040100020A0000000705022F
:10119000024000010705820240000100F76AAC0F1F
:1011A000F66E110EF7220900F55012000200F76AE0
:1011B000BE0FF66E110EF7220900F550120012173D
:1011C0001B20FFFFFFFFF76AD60FF66E110EF72206
:1011D0000900F550120012011001020000406104E4
:1011E0003300000101020001F76AF80FF66E110EDC
:1011F000F7220900F5501200040309040803430014
:1012000043005300180353004500520049004100B9
:101210004C002000440045004D004F006D92699441
:1012200068A402D06894FCD708EF10F0400E0401C7
:10123000016F040E036F180E026F880E006F046BAF
:10124000040E076F580E066F0001120070A002D046
:10125000EDDF7090689A0FEF10F06A6A689214EFF1
:1012600010F0AC91ABBFAC81AB9FAB51100803E267
:10127000000E016E20D0ACA110D0036AAB51F2CFAA
:10128000ADF0F29E08DFADBFF28EFF0802E1000E66
:1012900001D0010E016E0FD00ED0036AAB51F2CF18
:1012A000ADF0F29E08DFADBFF28EFF0802E1000E46
:1012B00001D0010E016E1200B051B203F3CF01F064
:1012C000F4CF00F0B303F3500026B151B203F35052
:1012D0000020026E1200036AAA51700FE96E0F0E11
:1012E0000320EA6EEF6AAAC0ABF0BBDF015222E036
:1012F000B16BAAC0B0F0B36B080EB26FDDDF01C0F6
:10130000E9FF040E0224EA6EEF6AB16BAAC0B0F0E6
:10131000B36B080EB26FD0DF02C0ACF001C0ABF00F
:10132000040EAB27000EAC23ABC0E9FF040EAC25C6
:10133000EA6EEF6A1200010EA96FA9510F0805E3CA
:10134000A9C0AAF0C8DFA92BF8D71200A36BA26B23
:10135000250EA16F800EA06FEA6A2B0EE96EE26A7D
:10136000A00EE16E020E016EE6CFEEFF012EFCD75D
:101370002D6A2E6AA06BEA6A2F0EE96EE26AA00E51
:10138000E16EE6CFEEFFA06BEA6A300EE96EE26A2C
:10139000A00EE16EE6CFEEFF080EA06FEA6A310EF6
:1013A000E96EE26AA00EE16EE6CFEEFF7D6B7C9106
:1013B000336A326A7B6B1E907E6B1200286A276A42
:1013C0009F6B9F5101080AE3036A9F51290FE96E41
:1013D000000E0320EA6EEF6A9F2BF3D7B7DF186A7F
:1013E000010E196E176A1200689612006A6A686A1E
:1013F0009F0E6B6E3D0E696E6E6A9DDFDFDF160E0F
:10140000706E68A602D0F0DFFCD76D980FDF030E78
:10141000226E19EF10F0698468986D821EEF10F04B
:10142000689C23EF10F0A4C023F012002368120080
:10143000A26B275028103CE0A2513F0839E31A5014
:1014400005E0020A0EE0010A17E020D026C003F0F2
:101450002550F2CFA4F0F29E77DEA4BFF28EA36FE8
:1014600015D026C003F02550F2CFA4F0F29EBCDECA
:10147000A4BFF28EA36F0AD026C003F02550F2CF8E
:10148000A4F0F29EA0DEA4BFF28EA36F252AD8B4EA
:10149000262A2750D8B428062706A251A22B580F77
:1014A000E96E040EEA6ED8B0EA2AA3C0EFFFC1D7F6
:1014B0002750281004E1A251400801E0176AA2C099
:1014C000A4F0B1DF1200266A256A1A6A04011B51D2
:1014D000010A000107E0030A0BE0010A0DE0220AFD
:1014E00027E049D0286A120E276E030E1A6E45D0E7
:1014F000286A430E276E41D0020E1A6E036A040159
:101500001A511B0FE96E000E0320EA6E266AEFCF18
:1015100025F026C003F02550F2CFA1F0F29E000185
:1015200063DEA1BFF28E036A276E03C028F025D0C8
:10153000036A04011A51F2CFA1F0F29E000137DED6
:10154000A1BFF28E036A256E03C026F0253C02D0AF
:1015500026520FE026C003F02550F2CFA1F0F29EF4
:10156000F3DDA1BFF28E036A276E03C028F005D019
:1015700002D05CDF11D05ADF0FD004011F5308E105
:10158000285203E127501E5D03E2286A1EC427F09B
:10159000010E176E00014CDF12EF0CF0A15304E1B5
:1015A000040E226EC8DEE9D0050E226E040EA46F72
:1015B000980EA36F010EA26FA2510F08D8A0DDD024
:1015C000A2C0AAF088DEA56B036AA251F2CFA9F0EF
:1015D000F29E71DDA9BFF28EFF0865E0040EA56FD3
:1015E000D890A235036AF2CFA9F0F29E8CDD0900F3
:1015F000F5CF03F0A9BFF28EA66F03C0A7F0B16BC1
:10160000A2C0B0F0B36B080EB26F56DE01C0A9F0F5
:10161000010E0124016E000E0220036E01C0E9FFDD
:10162000040E0324EA6EA6C0EFFFB16BA2C0B0F0B7
:10163000B36B080EB26F40DE01C0A9F0020E0124A8
:10164000016E000E0220036E01C0E9FF040E0324A8
:10165000EA6EA4C0ECFFED52A3C0EFFFD890A23514
:10166000036AF2CFA9F0F29E4EDD0900F5CF03F038
:10167000A9BFF28EA3270350A423880EA86FA7A1A9
:1016800001D0A881A7A301D0A883B16BA2C0B0F0FC
:10169000B36B080EB26F10DE01C0E9FF040E022426
:1016A000EA6EA8C0EFFF036AA251F2CFA9F0F29E42
:1016B000F2DCA9BFF28EFF0845E0A583B16BA2C0A2
:1016C000B0F0B36B080EB26FF7DD02C0AAF001C034
:1016D000A9F0040EA927000EAA23020EA925016E67
:1016E000000EAA21036E01C0E9FF040E0324EA6E76
:1016F000A4C0ECFFED52A3C0EFFFD890A235036A5F
:10170000F2CFA9F0F29EE7DC0900F5CF03F0A9BF04
:10171000F28EA3270350A423B16BA2C0B0F0B36B29
:10172000080EB26FC9DD02C0AAF001C0A9F0040E14
:10173000A927000EAA23A9C0E9FF040EAA25EA6E74
:10174000400EEF6EA551060802E10E0EA56F036A6A
:10175000A251F2CFA9F0F29E9EDCA9BFF28E010841
:1017600001E0A589036AA251700FE96E0F0E0320F4
:10177000EA6EA5C0EFFFA22B1FD70CEF0CF00401FF
:101780001951000A00010DE0010A14E0020A1FE0ED
:10179000060A29E0030A2EE00E0A2EE0010A32E0D2
:1017A00040D019C058F40401596B020E0001A46F17
:1017B0003ADE38D004011A2D07D0010E19160001A7
:1017C000A46B31DE03D00401000130DE2BD0040114
:1017D0001A2D06D019820001A46B25DE03D0040166
:1017E000000124DE1FD0020E176E1AC424F0A46B71
:1017F0001ADE18D068D616D018C058F4010EA46F9F
:1018000012DE10D004011A51010809E31AC418F0BD
:101810001AC4A1F00001C2D6A46B05DE04010001C8
:1018200001D004DE87EF0DF018C0A1F004011951BA
:10183000000A000105E00A0A0BE0010A2BE03CD097
:101840000401586B596B020E0001A46FECDD35D01A
:10185000A1531EE0010EA15D036AF2CFA2F0F29E39
:101860009DDCA2BFF28E016E04011C5DD8A002D0E7
:1018700000010ED0036A1C51290FE96E000E0320EF
:10188000EA6EEFCF58F4010E0001A46FCCDD01D059
:10189000CDDD13D0A1530EE0036A04011C51290FC2
:1018A000E96E000E0320EA6E1AC4EFFF0001A46B7C
:1018B000BADD01D0BBDD01D0B9DD87EF0DF0A2911B
:1018C000A1BFA281A19FA2A117D0B16BA1C0B0F00E
:1018D000B36B080EB26FF0DC02C0A4F001C0A3F03D
:1018E000040EA327000EA423A3C0E9FF040EA42521
:1018F000EA6E880EEF6E0DD0B16BA1C0B0F0B36B85
:10190000080EB26FD9DC01C0E9FF040E0224EA6EB2
:10191000EF6AFFEF0CF0A291A1BFA281A19FA2A14B
:1019200017D0B16BA1C0B0F0B36B080EB26FC4DCBE
:1019300002C0A4F001C0A3F0040EA327000EA4234C
:10194000A3C0E9FF040EA425EA6E840EEF6E0ED04C
:10195000B16BA1C0B0F0B36B080EB26FADDC01C0CB
:10196000E9FF040E0224EA6E840EEF6E05EF0DF01F
:10197000A291A1BFA281A19FA2A117D0B16BA1C0CA
:10198000B0F0B36B080EB26F97DC02C0A5F001C0D7
:10199000A4F0040EA427000EA523A4C0E9FF040EA2
:1019A000A525EA6EEFCFA3F00ED0B16BA1C0B0F0C9
:1019B000B36B080EB26F80DC01C0E9FF040E022495
:1019C000EA6EEFCFA3F0A3AF02D0A3B502D0000E12
:1019D00001D0010E016E0FEF0DF01CC4ABF041DC25
:1019E000015228E004011951010A000105E0020A30
:1019F00009E0030A0DE01DD01CC4A1F060D7A46B60
:101A000012DD18D01CC4A1F086D7A46B0CDD12D057
:101A10000401586B596B1CC4A1F00001A9D70152F5
:101A200004E0010E0401586F0001020EA46FFBDCFC
:101A300001D0FCDC87EF0DF0FE0E236E12000401D6
:101A40001C2D01D002D01C5348E11951000A00019D
:101A50000BE0010A0DE0210A1CE0010A1FE0030A65
:101A60002EE0010A31E037D0010E7E6FE5DF34D081
:101A7000040EEA6E580EE96EE26A340EE16E080E4C
:101A8000016EE6CFEEFF012EFCD71EC4A4F0CBDC26
:101A900023D0020E7E6F7C81CFDF1ED0040EEA6E53
:101AA000580EE96EE26A2B0EE16E070E016EE6CF6C
:101AB000EEFF012EFCD7070EA46FB5DC0DD01AC4C3
:101AC0007DF0A46BB0DC08D01AC433F01BC432F034
:101AD000A46BA9DC01D0AADC0401000187EF0DF0A2
:101AE000176A040118517F0B000A000107E0010A80
:101AF00007E0030A07E0230A07E008D040D607D032
:101B000093D605D06AD703D09AD701D08FDCB2EF35
:101B10000FF0B16BA2C0B0F0B36B080EB26F5CEC0B
:101B200009F001C0E9FF040E0224EA6EEFCFA4F031
:101B3000A351020806E1A4AD02D0A36B02D0010EAE
:101B4000A36FA35103081AE1840EA46FB16BA2C066
:101B5000B0F0B36B080EB26F5CEC09F002C0A8F0F5
:101B600001C0A7F0040EA727000EA823A7C0E9FF15
:101B7000040EA825EA6E840EEF6E07D0A32D03D0C5
:101B8000C80EA46F02D0880EA46FD890A235036A45
:101B9000F2CFA7F0F29E83EC08F00900F5CF03F036
:101BA000A7BFF28EA56F03C0A6F0B16BA2C0B0F0C4
:101BB000B36B080EB26F5CEC09F001C0A7F0010E28
:101BC0000124016E000E0220036E01C0E9FF040E25
:101BD0000324EA6EA5C0EFFFA6A101D0A481A6A3AD
:101BE00001D0A483B16BA2C0B0F0B36B080EB26F8A
:101BF0005CEC09F001C0E9FF040E0224EA6EA4C007
:101C0000EFFF1200036AAF51700FE96E0F0E032051
:101C1000EA6EEF5219E0B16BAFC0B0F0B36B080ED3
:101C2000B26F5CEC09F002C0B1F001C0B0F0040E7C
:101C3000B027000EB123B0C0E9FF040EB125EA6E53
:101C4000EFCFB2F0B2AF02D0000E01D0010E016EA4
:101C50001200AAC0AFF0D6DF0152D8B47DD0B16B6C
:101C6000AAC0B0F0B36B080EB26F5CEC09F002C012
:101C7000B0F001C0AFF0040EAF27000EB023010E8C
:101C8000AF25016E000EB021036E01C0E9FF040E06
:101C90000324EA6EABC0EFFFAD5102081EE1B16B49
:101CA000AAC0B0F0B36B080EB26F5CEC09F002C0D2
:101CB000B0F001C0AFF0040EAF27000EB023AFC0EC
:101CC000E9FF040EB025EA6EEFCFAEF0AEAD02D064
:101CD000AD6B02D0010EAD6F18D0AD51040815E107
:101CE000B16BAAC0B0F0B36B080EB26F5CEC09F038
:101CF00001C0E9FF040E0224EA6EEFCFAEF0AEADF4
:101D000003D0010EAD6F01D0AD6BAD2D03D0C80E69
:101D1000AE6F02D0880EAE6FACA101D0AE81ACA385
:101D200001D0AE83B16BAAC0B0F0B36B080EB26F36
:101D30005CEC09F002C0B0F001C0AFF0040EAF27B8
:101D4000000EB023AFC0E9FF040EB025EA6EAEC0AE
:101D5000EFFF010E016E02D0000E016E12007E51E7
:101D6000010A03E0030A13E024D0EA6A340EE96EA4
:101D7000040EE26E180EE16E080E016EE6CFEEFF65
:101D8000012EFCD7A46B13EC0AF07E6B13D0EA6A29
:101D90002B0EE96E040EE26E180EE16E070E016E58
:101DA000E6CFEEFF012EFCD77E6BA46B13EC0AF09E
:101DB00001D07E6B0FEF0FF0B16BA2C0B0F0B36B30
:101DC000080EB26F5CEC09F002C0A4F001C0A3F0F1
:101DD000010E0124016E000E0220036E01C0E9FF16
:101DE000040E0324EA6E036AEFCF01F003C002F091
:101DF00005EF0FF01E90020EA26FA36F8ADE120095
:101E00001E80206A020EA26FD7D701C01FF01F529A
:101E100001E1F0DF14EF0FF0A15302E1A0D704D0ED
:101E2000A151020801E1ECD71200A2C06EFFA2533B
:101E300003E0040E226E02D0020E226E25EF0FF098
:101E4000186A176A24C0A2F0F0D791EF0FF0A2C071
:101E5000AFF0D8DE015243E0B16BA2C0B0F0B36B7B
:101E6000080EB26F5CEC09F002C0ABF001C0AAF042
:101E7000040EAA27000EAB23020EAA25016E000E47
:101E8000AB21036E01C0E9FF040E0324EA6EECCF20
:101E9000A9F0ED52EFCFA8F0A9C0EAFFA8C0E9FF72
:101EA000A4C0E2FFA3C0E1FFA6C002F0A5C001F0FC
:101EB000015202E0022A02D0025206E0E6CFEEFF13
:101EC000012EFCD7022EFAD7A2C0AAF0A6C0ACF011
:101ED000A5C0ABF0A7C0ADF0BCDE015002D0000E33
:101EE000016E12007B530EE0020EA26FA46B3C0E3B
:101EF000A36FA66B7BC0A5F0020EA76FA8DF0152EF
:101F000001E07B6B1200EEDF96EF0FF0A1530AE1C8
:101F1000172C03D018EC0AF004D017500208D8B4DC
:101F20008FD704D0A151020801E1EDD71200213072
:101F30009F6F9F339F331F0E9F17215241E1040172
:101F400000513C0B0001A06F430E0401001700017B
:101F5000A05134081EE104010451800B01E0046B20
:101F60000001BED56D98233C05D0A26B030EA36F74
:101F7000D0DD0ED0A26B020EA36FCBDD2350FE0886
:101F800007E0AA6BAC6B23C0ABF0040EAD6F61DE53
:101F900016D0A051040813E1A16B3EDFA26B020E24
:101FA000A36FB7DD2350FE080AE0233C01D007D021
:101FB000AA6BAC6B23C0ABF0010EAD6F4ADE1AD03A
:101FC000215004080EE12368A16BA0DF233C01D05F
:101FD00007D0AA6BAC6B23C0ABF0020EAD6F39DE3D
:101FE00009D021B404D09FC0A1F016DF03D09FC058
:101FF000A1F08CDF2DEF10F0A19A2252D8B433D08B
:102000006852D8B430D068A403D069B40EEF09F098
:102010006DB229D068AA03D069BA26EF09F068A288
:1020200003D069B22DEF09F068A003D069B0F6EFD4
:1020300009F068A803D069B80BEF0AF068AC03D0C8
:1020400069BC10EF0AF09E6B68A608D069A606D09E
:102050006CCF21F0F4EC09F06AD701D004D09E5186
:102060009E2B0308F1E22AEF08F0686F6C61206D87
:1020700075646F006D6A696A080E6F6E945030095E
:10208000946E226A166AF2BE168EF29EDEEC09F09B
:1020900016BEF28E4DEF10F0EDD7CDEF11F0166AAF
:1020A000F2BE168EF29EDEEC09F016BEF28E6D6A5E
:1020B000140E6F6E696A6D86010E226E63EF10F06A
:1020C0006DB601D0ECD7222C0BD06DBA09D0686A5E
:1020D000696AA08AC00EF212110E696E020E226E9B
:1020E000CEEF11F01850016E79EF10F0010E876FEE
:1020F000F9D701C088F0896B7CB1892B885302E045
:102100008A8001D08A90895303E095928C8202D014
:1021100095928C927DA102D08A8A01D08A9A8753A7
:1021200002E0815300E1875302E1815300E08853CC
:1021300002E0825300E1885302E1825300E08953B8
:1021400002E0835300E187C081F088C082F089C03B
:1021500083F0CFEF11F0016603D0026602D007D002
:10216000022A00C0EEFF012EFCD7022EFAD733EF71
:1021700011F08AC090F089C08FF08CC092F08BC0B3
:1021800091F08E5303E18D51000830E28FC0E9FFDA
:1021900090C0EAFFEFCF93F092C003F091C0E9FF47
:1021A00092C0EAFFEF50935D16E090C003F08FC03D
:1021B000E9FF03C0EAFFEFCF93F092C003F091C0B4
:1021C000E9FF92C0EAFFEF50935D02E2FF0E01D0FB
:1021D000010E016E0DD08F2BD8B4902B912BD8B45B
:1021E000922B8D51D8B48E078D07CBD7000E016E80
:1021F00044EF11F0166AF2BE168EF29E010EAF6F1A
:1022000001DD16BEF28E015203E1000E016E21D0F7
:10221000A10E0401986F200E996F9A6B9B6B9C6BBB
:102220009D6B020E9E6F9F6B89C0A0F48AC0A1F4C3
:10223000166AF2BE168EF29E010E0001AA6FAC6BFA
:102240000A0EAB6F020EAD6F04DD16BEF28E010EEC
:10225000016E4BEF11F0EA6A870EE96E006A026ABE
:10226000020E016E78D79288879180A88781879324
:1022700087B187838A6B870E896F8C6B840E8B6F17
:102280008E6B020E8D6F75D7015213E088C08AF0F5
:1022900087C089F0AFD701520CE0EA6A840EE96E7C
:1022A000E26A870EE16E020E016EE6CFEEFF012EAE
:1022B000FCD7D0EF11F01EB001D0FDD72050202A5E
:1022C000A30FE96E040EEA6ED8B0EA2AEFCF87F0CA
:1022D0001F50205C07E3166AF2BE168EF29E8ADD5E
:1022E00016BEF28E87C001F0D3EF11F08C91A0BA28
:1022F0008C81A09A7B513E0802E23E0E7B6F7B519F
:102300007B2B036A3C0FE96E000E0320EA6E8BC044
:10231000EFFFA09A8CB1A08A91EF11F08AC08BF0E8
:10232000E5D7166AF2BE168EF29EDCDD16BEF28E80
:10233000A1EF11F07B513E0801E2FCD789C08AF081
:10234000EDD712000900F5520CE0F6CF87F0F7CF79
:1023500088F0F5CF89F0EEDF87C0F6FF88C0F7FF81
:10236000F1D7E0EF11F0F86AD09E078EC150C00B94
:102370000F09C16E070EB46E1B6A040E1C6E0C0EA4
:102380001D6E7F6B806B816B826B836B846B856B47
:102390008A9095928C928A9A7FD692D6A7D65BD74E
:1023A0001EA018D088D701C086F086C089F0C2DF91
:1023B0008651410805E16A0EF66E200EF76EC2D70F
:1023C0008651310802E195908C908651320802E1E5
:0823D00095908C80E2D7030018
:020000040030CA
:0E00000024CE3E1E0087A1000FC00FE00F406F
:00000001FF
;PIC18F4550
;CRC=6945  CREATED="29-jul-14 12:58"
